:020000040800F2
:100000009830002075570008650800086708000848
:100010006B0800086F080008730800080000000063
:100020000000000000000000000000007708000849
:1000300079080008000000001F090108C56B0008CE
:100040008F5700088F5700088F5700088F570008F8
:100050008F5700088F5700088F5700088F570008E8
:100060008F5700088F5700088F5700088F570008D8
:100070008F5700088F5700088F5700088F570008C8
:100080008F5700088F5700088F5700088F570008B8
:100090008F5700088F5700088F5700088F570008A8
:1000A0008F5700088F5700088F5700088F57000898
:1000B0008F5700088F5700088F5700088F57000888
:1000C0008F5700088F5700088F5700088F57000878
:1000D0008F570008B16D00088F5700088F57000830
:1000E0008F5700088F5700088F5700088F57000858
:1000F0008F5700088F5700088F5700088F57000848
:100100008F5700088F5700088F5700088F57000837
:100110008F5700088F5700088F5700088F57000827
:100120008F5700088F5700088F5700088F57000817
:100130008F5700088F5700088F5700088F57000807
:100140008F5700088F5700088F5700088F570008F7
:100150008F5700088F5700088F5700088F570008E7
:100160008F5700088F5700088F5700088F570008D7
:100170008F5700088F5700088F5700088F570008C7
:100180008F5700088F57000800F002F800F064F85D
:100190000AA090E8000C82448344AAF10107DA45E2
:1001A00001D100F059F8AFF2090EBAE80F0013F0D0
:1001B000010F18BFFB1A43F0010318470C2601007A
:1001C0002C2601000A444FF0000C10F8013B13F0FC
:1001D000070408BF10F8014B1D1108BF10F8015BA0
:1001E000641E05D010F8016B641E01F8016BF9D193
:1001F00013F0080F1EBF10F8014BAD1C0C1B09D1EA
:100200006D1E58BF01F801CBFAD505E014F8016B5B
:1002100001F8016B6D1EF9D59142D6D370470000ED
:100220000023002400250026103A28BF78C1FBD8FF
:10023000520728BF30C148BF0B607047642910F0D7
:100240002F82782910F06882002070471FB510F0C7
:10025000DFFC1FBD10B510BD10F016FB1146FFF7F7
:10026000F5FF00F0C6F910F034FB03B4FFF7F2FF1E
:1002700003BC06F039FD00000EB50024002500BFC8
:100280000020FE49088000BF00BF00BF06F074FFD9
:10029000054600BF00BFFA480078401CF8490870C6
:1002A00000BF00BF284606F06BFF00BF00BF00BFC5
:1002B0004FF49D73EA226E217D2005F073F88223AE
:1002C000EA2219467D2005F015F81F20EB49088029
:1002D000ECA010210B466E22CDE900106F217E208C
:1002E00005F015FA00BF00BF00BF06F045FF054648
:1002F00000BF00BFE2480078401EE1490870084690
:100300000078A0B9E3480088002809DD00BF00BFDD
:10031000284606F035FF00BF00BF09F0D9F90DE00F
:1003200000BF00BF284606F02BFF00BF06E000BF5D
:1003300000BF284606F024FF00BF00BF00BF31E029
:10034000601CC4B2D4480068C043D449C1F8A802B4
:100350002146D3A010F064F9802010210323224607
:10036000CDE900106F21CE2005F063F90E2094FB3B
:10037000F0F100FB1140C0F10D00CF4931F8200031
:1003800086B240F23913E92283217E20009604F0E0
:1003900024FF02A800210B460122CDE900100846E7
:1003A0000FF091F8CCE70EB50024002500BF002027
:1003B000B249088000BF00BF00BF06F0DDFE054661
:1003C00000BF00BFAE480078401CAD49087000BFB8
:1003D00000BF284606F0D4FE00BF00BF00BF4FF4A8
:1003E0009D7373226E21052004F0DCFF82237322AB
:1003F0001946052004F07EFF1F20A0490880AFA009
:1004000010210B466E22CDE900106F21062005F069
:100410007EF900BF00BF00BF06F0AEFE054600BF7C
:1004200000BF97480078401E95490870084600783C
:10043000A0B998480088002809DD00BF00BF284601
:1004400006F09EFE00BF00BF09F042F90DE000BFBC
:1004500000BF284606F094FE00BF06E000BF00BFC4
:10046000284606F08DFE00BF00BF00BF39E0601CCB
:10047000C4B28948001F0068C0438849C1F8A4027B
:10048000214692A010F0CCF8052C06D102A995487F
:100490000DF0D2F994A010F0C3F80E2094FBF0F107
:1004A00000FB1140844931F8200086B240F2391334
:1004B000722283210620009604F08FFE80201021F6
:1004C00003232246CDE900106F21562005F0B1F834
:1004D00002A800210B460122CDE9001008460EF0CB
:1004E000F2FFC4E730B58BB00446002500BF06F02C
:1004F0000BFD0AA80CF075FC0AAA0121084608F0B9
:10050000FEFC00BF00BF00BF06F036FE054600BF80
:1005100000BF5B480078401C5949087000BF00BF0D
:10052000284606F02DFE00BF00BF00BF0AA8032129
:1005300000220592CDE906210890104680210C2268
:100540006E4BCDE90132CDE9031004200023AFF258
:10055000A9126BA100906D480DF01AF80AA80321AA
:1005600000220592CDE906210890104680210C2238
:10057000674BCDE90132CDE9031005200023AFF22E
:10058000073264A1009057480DF002F800BF00BF89
:1005900000BF06F0F1FD054600BF00BF38480078F7
:1005A000401E3749087008460078A0B939480088CD
:1005B000002809DD00BF00BF284606F0E1FD00BFAE
:1005C00000BF09F085F80DE000BF00BF284606F027
:1005D000D7FD00BF06E000BF00BF284606F0D0FDF3
:1005E00000BF00BF00BF0AA900200DF025F90BB025
:1005F00030BD10B58AB00024A82006F0EFFA4FF401
:10060000A06005F0D7F84FF4E13006F07BFB00F076
:100610003DFA01F02EF94FF478401849088040A0C7
:1006200010210B46C822CDE900100A211E2005F03A
:100630006EF840A010210B46C822CDE900101E2103
:10064000084605F064F840A010210B46C822CDE909
:10065000001032211E2005F05AF840A010210B4650
:10066000C822CDE9001046211E2005F050F83FA019
:1006700010210B46C822CDE900107DE04C0000207F
:10068000E40000205461736B322052756E3A3030B2
:1006900030000000A8000020A882424200804242B0
:1006A000C8CECEF132D2D1BEADD6B4D0D0A3BA2509
:1006B00064B4CE0D0A000000000000205461736B8A
:1006C000312052756E3A303030000000C8CECEF185
:1006D00031D2D1BEADD6B4D0D0A3BA2564B4CE0D3C
:1006E0000A000000D0060020C8CECEF131C9BEB34A
:1006F000FDC1CBC8CECEF132210D0A00D0040020BE
:100700005461736B31207461736B00000C04002022
:10071000940700207461736B32207461736B000066
:100720004578706C6F7265722053544D3332463485
:100730000000000055434F53494949204578616DF9
:100740007020362D310000005461736B20437265B8
:10075000617420616E642044656C000041544F4D0B
:1007600040414C49454E54454B0000003230313435
:100770002F31312F323500005A211E2004F0C7FFDF
:1007800009A808F093F900BF00BF00BF06F0F4FC11
:10079000044600BF00BF2C480078401C2A4908705E
:1007A00000BF00BF204606F0EBFC00BF00BF00BF4B
:1007B00009A8032100220592CDE9062108901046E0
:1007C00080210C22214BCDE90132CDE90310032019
:1007D0000023AFF2EF221EA1009020480CF0D8FEBB
:1007E00000BF00BF00BF06F0C7FC044600BF00BF4B
:1007F00015480078401E1449087008460078A0B9D2
:1008000017480088002809DD00BF00BF204606F019
:10081000B7FC00BF00BF08F05BFF0DE000BF00BFEA
:10082000204606F0ADFC00BF06E000BF00BF20463A
:1008300006F0A6FC00BF00BF00BF09A808F0FFFB40
:1008400000200AB010BD0000E40000200C020020CF
:100850007374617274207461736B0000480100202E
:10086000A8000020704700BFFEE700BFFEE700BF02
:10087000FEE700BFFEE77047704700000CB50020A0
:10088000019000907648006840F480307449086018
:1008900000BF7348006800F4003000900198401CCD
:1008A0000190009818B90198B0F5A04FF1D16C48AB
:1008B000006800F4003010B10120009001E0002039
:1008C00000900098012846D165484030006840F00B
:1008D00080506349403108606248006840F44040FD
:1008E000604908605E48083000685D49083108606A
:1008F0000846006840F4004008600846006840F47C
:10090000A05008605848091F0860081F006840F0A0
:100910008070091F086000BF5148006800F0007037
:100920000028F9D040F20570504908604C48083062
:10093000006820F003004A49083108600846006852
:1009400040F00200086000BF45480830006800F031
:100950000C000828F8D10CBD10B54548006840F4DB
:100960007000434908603E48006840F001003C497F
:10097000086000203A4908310860394800683D495C
:100980000840374908603C48091D0860081F006896
:1009900020F48020091F0860002031490C310860D4
:1009A000FFF76CFF4FF0006031498039086010BDDF
:1009B00070B500200022022300240221284D0835B2
:1009C0002D6805F00C0020B1042806D0082834D189
:1009D00007E02A4D2A4E356033E02A4D284E356017
:1009E0002FE01F4D2D1D2D68C5F380541C4D2D1D6E
:1009F0002D6805F03F0154B1224DB5FBF1F5184EBD
:100A0000361D3668C6F3881605FB06F209E01B4D55
:100A1000B5FBF1F5124E361D3668C6F3881605FB98
:100A200006F20F4D2D1D2D68C5F301456D1C6B00A1
:100A3000B2FBF3F5124E356003E0104D104E3560F9
:100A400000BF00BF064D08352D68C5F303150E4ED7
:100A5000705D0B4D2D68C540094E356070BD0000BE
:100A6000003802400070004008544007003C02403B
:100A700088ED00E0FFFFF6FE103000240024F400B3
:100A80003800002000127A003C0000201CB5012133
:100A9000202005F023FA4FF4C060009001208DF86B
:100AA000040000208DF806008DF8070003208DF863
:100AB00005006946044804F073FF4FF4C061024822
:100AC00004F0EAFF1CBD00000014024001B5BDF8AF
:100AD00000000090BDF80000FC49088008BD01B589
:100AE000BDF800000090BDF80000F849891C08809E
:100AF00008BD08B5F548801C00880090BDF80000CE
:100B000008BD03B5BDF80000F0490880BDF8040039
:100B10004FF0D841A1F880000CBD01B5BDF8000030
:100B2000FFF7D4FF052006F088F8FFF7E2FF08BDC5
:100B3000E7480089E54908807047E449891C088036
:100B4000704730B5014601F01F04C1F34513CA0ACE
:100B5000E50205EB43151544A8B230BD00BF010006
:100B6000A0F10102D0B2FAD1704730B504460D466B
:100B7000D748808849F24131884205D0D4488088DE
:100B800045F21031884214D1D1494889FFF79EFFC0
:100B90002012FFF7A4FFE0B2FFF7A1FFCC4988893C
:100BA000FFF794FF2812FFF79AFFE8B2FFF797FFCD
:100BB000ABE0C748808846F6040188421DD1C4488E
:100BC0008079012804D1C2480088401E001B84B2ED
:100BD000BF494889FFF77AFF2012FFF780FFE0B294
:100BE000FFF77DFFBA498889FFF770FF2812FFF7EA
:100BF00076FFE8B2FFF773FF87E0B548808841F6DB
:100C00006311884247D1B2488079A8B9B0480088BA
:100C1000401E001B84B2AE494889FFF757FF0020F1
:100C2000FFF75DFF0020FFF75AFF2012FFF757FF85
:100C3000E0B2FFF754FF16E0A5494889FFF746FFE9
:100C40002012FFF74CFFE0B2FFF749FFA0490988E7
:100C5000491EC1F30F20FFF742FF9D490978491E45
:100C6000C8B2FFF73CFF9A498889FFF72FFF281287
:100C7000FFF735FFE8B2FFF732FF95494988491E73
:100C8000C1F30F20FFF72BFF91498978491EC8B2A5
:100C9000FFF725FF39E08E48808845F210518842E1
:100CA00020D18B494889FFF711FF2012FFF717FF6A
:100CB00087494989491C88B2FFF708FFE0B2FFF76E
:100CC0000EFF83498889FFF701FF2812FFF707FF0E
:100CD0007F498989491C88B2FFF7F8FEE8B2FFF71F
:100CE000FEFE12E07A488079012804D17848008815
:100CF000401E001B84B2764948892146FFF701FF58
:100D0000734988892946FFF7FCFE30BD3EB504468D
:100D10000D4600200290019000906D480088A0428E
:100D200003DD6B484088A84201DC00203EBD294617
:100D30002046FFF71AFF6648808849F24131884211
:100D400011D06348808846F6040188420BD0604881
:100D5000808845F21031884205D05D48808841F690
:100D60006311884203D12E20FFF7B0FE0DE05848F2
:100D7000808845F21051884204D14FF43850FFF773
:100D8000A5FE02E02220FFF7A1FE5148808849F22B
:100D90002031884202D10220FFF7E0FEFFF7A9FED2
:100DA00002904B48808841F66311884202D1BDF819
:100DB0000800BBE70220FFF7D1FEFFF79AFE029082
:100DC0004348808849F2413188420BD040488088AE
:100DD00045F21031884205D03D48808845F21051D7
:100DE000884210D10220FFF7B9FEFFF782FE009083
:100DF000BDF80800C0B20190BDF804004FF6FF71C5
:100E000001EA002001903248808849F22531884269
:100E100016D02F48808844F23551884210D02C4893
:100E20008088091F88420BD0294880884BF20551E1
:100E3000884205D0264880884CF20551884202D16C
:100E4000BDF8080072E72248808849F241318842A3
:100E50000BD01F48808845F21031884205D01C48CD
:100E6000808845F2105188420DD1BDF80800C012AB
:100E7000C002BDF80410891240EA4110BDF800100C
:100E800040EAE12052E7BDF80800FFF75AFE4DE7BF
:100E900000B50F48808849F24131884211D00C4892
:100EA000808846F6040188420BD00948808845F2C4
:100EB0001031884205D00648808841F66311884287
:100EC00008D12920FFF702FE14E000007E00006C2C
:100ED00094090020FE48808845F21051884204D1D0
:100EE0004FF42450FFF7F2FD04E040F273110720A5
:100EF000FFF707FE00BD00B5F548808849F2413193
:100F0000884211D0F248808846F6040188420BD00E
:100F1000EF48808845F21031884205D0EC4880883F
:100F200041F66311884203D12820FFF7CFFD0EE080
:100F3000E748808845F21051884204D14FF4205090
:100F4000FFF7C4FD03E000210720FFF7DAFD00BD35
:100F5000F0B5054600240027DD48807901280BD133
:100F6000DB48808846F60401884205D0D84880884E
:100F700041F66311884208D1D5488079F0B9D44848
:100F8000808841F66311884218D1082D15D2DFE818
:100F900005F00406080A0C0E101206250DE00725C0
:100FA0000BE0042509E0052507E0012505E0002503
:100FB00003E0032501E0022500BF00BFC44880888C
:100FC00049F24131884217D0C148808846F6040171
:100FD000884211D0BE48808845F2103188420BD03B
:100FE000BB48808845F21051884205D0B8488088B7
:100FF00041F6631188427DD1082D1CD2DFE805F04F
:101000000406090C0F12151800BF14E044F0800408
:1010100011E044F040040EE044F0C0040BE044F062
:10102000200408E044F0600405E044F0A00402E07D
:1010300044F0E00400BF00BFA548808845F210518D
:10104000884202D14FF4585700E03627A0488088E4
:1010500045F2103188420DD09D48808845F21051EC
:10106000884207D09A48808841F66311884201D0AF
:1010700044F008049648808846F60401884201D16D
:1010800044F0020421463846FFF73BFD9048808833
:1010900041F6631188421DD004F0200068B18C48ED
:1010A00000888B494988884214DA89480688408834
:1010B00087490880084646800CE0854800888449B6
:1010C0004988884206DD8248068840888049088031
:1010D000084646807E48808845F21051884254D1A7
:1010E0007B494889FFF7F2FC0020FFF7F8FC7849BC
:1010F000498900E078E0491C88B2FFF7E7FC00204E
:10110000FFF7EDFC72494989891C88B2FFF7DEFCC4
:101110006F490988491EC1F30F20FFF7E0FC6C49B5
:101120004989C91C88B2FFF7D1FC69490978491E71
:10113000C8B2FFF7D4FC66498889FFF7C7FC0020D6
:10114000FFF7CDFC62498989491C88B2FFF7BEFCD4
:101150000020FFF7C4FC5E498989891C88B2FFF72B
:10116000B5FC5B494988491EC1F30F20FFF7B7FC66
:1011700057498989C91C88B2FFF7A8FC5449897866
:10118000491EC8B2FFF7ABFC55E051494889FFF74B
:101190009DFC0020FFF7A3FC0020FFF7A0FC4C49BA
:1011A0000988491EC1F30F20FFF799FC48490978C7
:1011B000491EC8B2FFF793FC45498889FFF786FCB2
:1011C0000020FFF78CFC0020FFF789FC404949888C
:1011D000491EC1F30F20FFF782FC3D498978491E63
:1011E000C8B2FFF77CFC26E0082D1CD2DFE805F032
:1011F00004070A0D0F12151844F0300413E044F0F0
:10120000100410E044F020040DE000BF0BE044F0B7
:10121000380408E044F0280405E044F0180402E033
:1012200044F0080400BF00BF032744F48054214663
:101230003846FFF766FCF0BD30B504460D4629463A
:101240002046FFF792FCFFF773FC224800882249F2
:10125000088030BD70B504460D4616461C4880888F
:1012600049F24131884205D01948808845F2103151
:10127000884214D116494889FFF728FC2012FFF74D
:101280002EFCE0B2FFF72BFC11498889FFF71EFC0A
:101290002812FFF724FCE8B2FFF721FC93E00C488A
:1012A000808845F21051884227D109494889FFF7C3
:1012B0000DFC2012FFF713FC05494989491C88B22F
:1012C000FFF704FCE0B2FFF70AFC0149888905E05A
:1012D000940900204C0000208000006CFFF7F6FB12
:1012E0002812FFF7FCFBFE498989491C88B2FFF7E9
:1012F000EDFBE8B2FFF7F3FB65E0F948808841F6C3
:101300006311884228D1F648807920B9F4480088D2
:10131000401E001B84B2F2494889FFF7D7FB201218
:10132000FFF7DDFBE0B2FFF7DAFB2012FFF7D7FB98
:10133000E0B2FFF7D4FBEA498889FFF7C7FB281220
:10134000FFF7CDFBE8B2FFF7CAFB2812FFF7C7FB98
:10135000E8B2FFF7C4FB36E0E148808846F60401B6
:1013600088421DD1DE488079012804D1DC480088FC
:10137000401E001B84B2DA494889FFF7A7FB201200
:10138000FFF7ADFBE0B2FFF7AAFBD5498889FFF76D
:101390009DFB2812FFF7A3FBE8B2FFF7A0FB12E0CA
:1013A000CF488079012804D1CD480088401E001B19
:1013B00084B2CB4948892146FFF7A3FBC8498889F5
:1013C0002946FFF79EFBC6480089C64908804FF0B2
:1013D000D840A0F8806070BD70B52DED048B044638
:1013E000BE20FFF773FB0520FFF779FB20460FF0C7
:1013F000FEFA41EC190B9FEDBC0B53EC102B0FF0D8
:1014000009FB41EC180B0FF0C5FA85B22846FFF72F
:1014100066FB0120FFF763FBFF20FFF760FB002066
:10142000FFF75DFB0020FFF75AFBBDEC048B70BD9E
:1014300010B50446002C66D1A9498871F0200880B7
:101440004FF4A07048800846808849F241318842B4
:101450000BD0A348808846F60401884205D0A048F6
:10146000808845F2103188421AD12C209C4908818D
:101470002A2048812B2088810846808846F604016E
:10148000884205D09648808845F21031884206D1BE
:101490004FF4A070924908804FF4F0704880A1E0AA
:1014A0008F48808845F21051884210D14FF4305057
:1014B0008B4908814FF4285048814FF42C50888183
:1014C0004FF4F07008804FF4487048808AE08448F8
:1014D000808841F6631188420DD12C208049088113
:1014E0002B2048812A2088814FF4F07008804FF427
:1014F0004870488076E02220794908812020488180
:10150000212088816EE00120754988714FF4A07018
:101510000880F02048800846808849F2413188429E
:1015200005D06F48808845F21031884207D12C20C1
:101530006B4908812A2048812B2088813FE0684838
:10154000808846F60401884207D12C20644908812E
:101550002B2048812A20888131E06148808845F22B
:101560001051884210D14FF430505D4908814FF43A
:10157000285048814FF42C5088814FF448700880DF
:101580004FF4F07048801AE05548808841F66311A6
:1015900088420DD12C20524908812A2048812B20D5
:1015A00088814FF4487008804FF4F070488006E05E
:1015B00022204B49088121204881202088814848E9
:1015C000808846F60401884205D04548808845F267
:1015D0001031884206D14FF4F070414908804FF431
:1015E000A07048800020FFF7B3FC10BD2DE9F04F3C
:1015F00086B004460D469046994604EB0800401E0E
:1016000086B205EB0900401E87B23548808849F252
:101610004131884215D03248808845F210318842E5
:101620000FD02F48808846F60401884209D02C4804
:101630008079012826D12A48808841F663118842A2
:1016400020D127494889FFF741FA2012FFF747FACE
:10165000E0B2FFF744FA3012FFF741FAF0B2FFF7B9
:101660003EFA1F498889FFF731FA2812FFF737FA47
:10167000E8B2FFF734FA3812FFF731FAF8B2FFF7A1
:101680002EFAC1E01648808841F6631188423DD1A8
:1016900013480088A0EB0800001B84B205EB09008A
:1016A000401E1FFA80F90E494889FFF70FFA2012F1
:1016B000FFF715FAE0B2FFF712FA04EB0801491E32
:1016C000C1F30F20FFF70BFA04EB0801491EC8B263
:1016D000FFF705FA02498889FFF7F8F9281207E0B1
:1016E000940900207E00006C6666666666660440AB
:1016F000FFF7F5F9E8B2FFF7F2F94FEA2920FFF713
:10170000EEF909F0FF00FFF7EAF97DE0FE48808876
:1017100045F21051884244D1FB494889FFF7D6F978
:101720002012FFF7DCF9F8494989491C88B2FFF714
:10173000CDF9E0B2FFF7D3F9F3494989891C88B2A2
:10174000FFF7C4F93012FFF7CAF9EF494989C91CFC
:1017500088B2FFF7BBF9F0B2FFF7C1F9EA4988890F
:10176000FFF7B4F92812FFF7BAF9E7498989491C4C
:1017700088B2FFF7ABF9E8B2FFF7B1F9E24989891E
:10178000891C88B2FFF7A2F93812FFF7A8F9DE49E1
:101790008989C91C88B2FFF799F9F8B2FFF79FF958
:1017A00032E0D948807901280ED1AA46BB46D648F6
:1017B0000088801B401E80B20190D3480088001B27
:1017C000401E80B2009003E0A246B3460195009708
:1017D00050200590512004905220039053200290F5
:1017E00051460598FFF78DF959460498FFF789F996
:1017F00001990398FFF785F900990298FFF781F99D
:1018000029462046FFF7B1F906B0BDE8F08F70B564
:1018100004460026BC48058840884543BA4880886D
:1018200046F60401884216D1B7488079012812D1C2
:101830000020B54988712A2048812B208881002109
:101840000846FFF792F90120AF4988712B204881A3
:101850002A20888103E000210846FFF786F9FFF778
:1018600067F9002602E0A9480480761CAE42FAD34C
:1018700070BD00B5A1B00020209001217A2004F0B5
:101880002DFB0121084604F061FB4FF400401E903F
:1018900001208DF87C0000208DF87E0002208DF85C
:1018A0007D0001208DF87F001EA9994804F078F88A
:1018B0004CF233701E9002208DF87C0000208DF8D1
:1018C0007E0003208DF87D0001208DF87F001EA989
:1018D000904804F065F84FF680701E9002208DF855
:1018E0007C0000208DF87E0003208DF87D00012013
:1018F0008DF87F001EA9884804F052F84FF48050FC
:101900001E9002208DF87C0000208DF87E000320C0
:101910008DF87D0001208DF87F001EA97F4804F01E
:101920003FF84FF480501E9002208DF87C0000207C
:101930008DF87E0003208DF87D0001208DF87F005A
:101940001EA9774804F02CF80C220021714804F0FD
:10195000B2F80C2201216F4804F0ADF80C220421EA
:101960006C4804F0A8F80C2205216A4804F0A3F89A
:101970000C220821674804F09EF80C2209216548D2
:1019800004F099F80C220A21624804F094F80C2221
:101990000E21604804F08FF80C220F215D4804F0FE
:1019A0008AF80C2207215C4804F085F80C220821F3
:1019B000594804F080F80C220921574804F07BF8BC
:1019C0000C220A21544804F076F80C220B215248CC
:1019D00004F071F80C2211464F4804F06CF80C2208
:1019E0000D214D4804F067F80C220E214A4804F0FE
:1019F00062F80C220F21484804F05DF80C221146D1
:101A0000464804F058F80C221146454804F053F8B3
:101A10000F200890002009903C200A9000200B9095
:101A20000C900D900E90092001900020029008204B
:101A300003900020049005900690079006200F90D8
:101A400000201090119010201290002013901590FB
:101A50001490169017904FF4805018900020199011
:101A60004FF480401A9000201B9008A81C9001A8F9
:101A70001D900FA804F0CBFD0121062004F052FEBA
:101A8000322005F004F901210020FFF73AF8322056
:101A900005F0FDF80020FFF740F81B498880084654
:101AA0008088FF280ADB084680884FF6FF7188424D
:101AB00004D015488088B0F5134F7DD1D320FFF7AF
:101AC00005F8FFF716F810498880FFF712F80E495D
:101AD0008880FFF70EF80C498880084680884FF60A
:101AE000FF7101EA002008498880FFF702F80649E3
:101AF00089880843044988800846808849F2413132
:101B0000884259D0BF200DE0940900208000006C6D
:101B100000040240000C0240001002400014024089
:101B200000180240FEF7D2FFFEF7E3FFFE4988806F
:101B3000FEF7DFFFFC498880FEF7DBFFFA4988806B
:101B4000FEF7D7FFF8498880084680884FF6FF7176
:101B500001EA0020F4498880FEF7CBFFF24989882A
:101B60000843F14988800846808846F60401884287
:101B70007AD0D420FEF7AAFFFEF7BBFFEA4988809F
:101B8000FEF7B7FFE8498880FEF7B3FFE649888093
:101B9000084680884FF6FF7101EA0020E2498880FC
:101BA000FEF7A7FFE04989880843DF498880084697
:101BB000808845F2103100E056E0884254D04FF45E
:101BC0005A40FEF783FFFEF794FFD74988804FF411
:101BD0005B40FEF77BFFFEF78CFFD3498880084609
:101BE00080884FF6FF7101EA0020CF4988804FF4CA
:101BF0005C40FEF76BFFFEF77CFFCB49898808430A
:101C0000C949888008468088B0F5004F02D145F266
:101C100010508880C448808845F21051884223D0F3
:101C2000A120FEF753FFFEF764FFBF498880FEF74F
:101C300060FFBD498880084680884FF6FF7101EA41
:101C40000020B9498880FEF754FFB74989880843C6
:101C5000B54988800846808845F26171884203D181
:101C600041F66310B0498880AF48808849F241311D
:101C7000884211D0AC48808845F2103188420BD0A0
:101C8000A948808845F21051884205D0A64880882E
:101C900041F6631188421DD1A448006820F00F006E
:101CA0004FF02041C1F81C010846D0F81C0120F477
:101CB0007060C1F81C010846D0F81C0140F0030018
:101CC000C1F81C010846D0F81C0140F40070C1F8AE
:101CD0001C0128E09448808846F60401884205D01B
:101CE000914880884CF2055188421CD18F48006889
:101CF00020F00F004FF02041C1F81C010846D0F839
:101D00001C0120F47060C1F81C010846D0F81C01C9
:101D100040F00A00C1F81C010846D0F81C0140F44C
:101D20004060C1F81C018048818881A00EF078FCD9
:101D30007D48808849F2413188427CD1CF20FEF72E
:101D4000C5FE0020FEF7CBFE2098401C2090C1204D
:101D5000FEF7C5FE3020FEF7C2FEED20FEF7B6FE10
:101D60006420FEF7BCFE0320FEF7B9FE1220FEF74A
:101D7000B6FE8120FEF7B3FEE820FEF7A7FE852021
:101D8000FEF7ADFE1020FEF7AAFE7A20FEF7A7FEB2
:101D9000CB20FEF79BFE3920FEF7A1FE2C20FEF79C
:101DA0009EFE0020FEF79BFE3420FEF798FE0220E8
:101DB000FEF795FEF720FEF789FE2020FEF78FFE46
:101DC000EA20FEF783FE0020FEF789FE0020FEF7E2
:101DD00086FEC020FEF77AFE1B20FEF780FEC120A3
:101DE000FEF774FE0120FEF77AFEC520FEF76EFEB8
:101DF0003020FEF774FE3020FEF771FEC720FEF79C
:101E000065FEB720FEF76BFE3620FEF75FFE48202A
:101E1000FEF765FE3A20FEF759FE5520FEF75FFEFD
:101E2000B120FEF753FE0020FEF759FE1A20FEF700
:101E300056FEB62000E0A7E0FEF748FE0A20FEF7B7
:101E40004EFEA220FEF74BFEF220FEF73FFE0020E2
:101E5000FEF745FE2620FEF739FE0120FEF73FFE85
:101E6000E020FEF733FE0F20FEF739FE2A20FEF7B2
:101E700036FE2820FEF733FE0820FEF730FE0E2047
:101E8000FEF72DFE0820FEF72AFE5420FEF727FE5F
:101E9000A920FEF724FE4320FEF721FE0A20FEF7CC
:101EA0001EFE0F20FEF71BFE0020FEF718FE00208E
:101EB000FEF715FE0020FEF712FE0020FEF70FFED3
:101EC000E120FEF703FE0020FEF709FE1520FEF7D5
:101ED00006FE1720FEF703FE0720FEF700FE112086
:101EE000FEF7FDFD0620FEF7FAFD2B20FEF7F7FDBD
:101EF0005620FEF7F4FD3C20FEF7F1FD0520FEF72D
:101F0000EEFD1020FEF7EBFD0F20FEF7E8FD3F2071
:101F1000FEF7E5FD3F20FEF7E2FD0F20FEF7DFFDB7
:101F20002B20FEF7D3FD09E0940900201C0100A03E
:101F30004C43442049443A25780D0A000020FEF71E
:101F4000CEFD0020FEF7CBFD0120FEF7C8FD3F20AF
:101F5000FEF7C5FD2A20FEF7B9FD0020FEF7BFFD04
:101F60000020FEF7BCFD0020FEF7B9FDEF20FEF7D4
:101F7000B6FD1120FEF7AAFD782004F088FE292086
:101F8000FEF7A4FD03F01DB9FE48808846F6040163
:101F900088427CD11120FEF799FD142004F077FED1
:101FA000D020FEF793FD0720FEF799FD4220FEF7B3
:101FB00096FD1D20FEF793FDD120FEF787FD002042
:101FC000FEF78DFD1A20FEF78AFD0920FEF787FD3A
:101FD000D220FEF77BFD0120FEF781FD2220FEF7D7
:101FE0007EFDC020FEF772FD1020FEF778FD3B203D
:101FF000FEF775FD0020FEF772FD0220FEF76FFD73
:102000001120FEF76CFDC520FEF760FD0320FEF7F2
:1020100066FDC820FEF75AFD0020FEF760FD252072
:10202000FEF75DFD2120FEF75AFD0520FEF757FD66
:102030000020FEF754FD0A20FEF751FD6520FEF753
:102040004EFD2520FEF74BFD7720FEF748FD502082
:10205000FEF745FD0F20FEF742FD0020FEF73FFD95
:10206000F820FEF733FD0120FEF739FDFE20FEF7D4
:102070002DFD0020FEF733FD0220FEF730FD20206D
:10208000FEF724FD3620FEF721FD082000E02CE0BD
:10209000FEF725FD3A20FEF719FD5520FEF71FFD3E
:1020A0002B20FEF713FD0020FEF719FD0020FEF7A0
:1020B00016FD0120FEF713FD3F20FEF710FD2A203C
:1020C000FEF704FD0020FEF70AFD0020FEF707FDE5
:1020D0000120FEF704FDDF20FEF701FD782004F06B
:1020E000D6FD2920FEF7F2FC4CE7A648808845F291
:1020F0001031884240F07C87ED20FEF7E7FC01209C
:10210000FEF7EDFCFE20FEF7EAFCEE20FEF7DEFC1B
:10211000DE20FEF7E4FC2120FEF7E1FCF120FEF7D3
:10212000D5FC0120FEF7DBFCDF20FEF7CFFC102002
:10213000FEF7D5FCC420FEF7C9FC8F20FEF7CFFCCC
:10214000C620FEF7C3FC0020FEF7C9FCE220FEF724
:10215000C6FCE220FEF7C3FCE220FEF7C0FCBF2075
:10216000FEF7B4FCAA20FEF7BAFCB020FEF7AEFCE6
:102170000D20FEF7B4FC0020FEF7B1FC0D20FEF7A9
:10218000AEFC0020FEF7ABFC1120FEF7A8FC0020FF
:10219000FEF7A5FC1920FEF7A2FC0020FEF79FFC2D
:1021A0002120FEF79CFC0020FEF799FC2D20FEF775
:1021B00096FC0020FEF793FC3D20FEF790FC0020EB
:1021C000FEF78DFC5D20FEF78AFC0020FEF787FC01
:1021D0005D20FEF784FC0020FEF781FCB120FEF7B5
:1021E00075FC8020FEF77BFC0020FEF778FC8B203E
:1021F000FEF775FC0020FEF772FC9620FEF76FFCE0
:102200000020FEF76CFCB220FEF760FC0020FEF719
:1022100066FC0020FEF763FC0220FEF760FC002055
:10222000FEF75DFC0320FEF75AFC0020FEF757FC8A
:10223000B320FEF74BFC0020FEF751FC0020FEF718
:102240004EFC0020FEF74BFC0020FEF748FC00206F
:10225000FEF745FC0020FEF742FC0020FEF73FFCA5
:102260000020FEF73CFC0020FEF739FC0020FEF7C2
:1022700036FC0020FEF733FC0020FEF730FC002087
:10228000FEF72DFC0020FEF72AFC0020FEF727FCBD
:102290000020FEF724FC0020FEF721FC0020FEF7C2
:1022A0001EFC0020FEF71BFC0020FEF718FC00209F
:1022B000FEF715FC0020FEF712FC0020FEF70FFCD5
:1022C0000020FEF70CFCB420FEF700FC8B20FEF78C
:1022D00006FC0020FEF703FC9620FEF700FC002021
:1022E000FEF7FDFBA120FEF7FAFB0020FEF7F7FB4F
:1022F000B520FEF7EBFB0220FEF7F1FB0020FEF716
:10230000EEFB0320FEF7EBFB0020FEF7E8FB0420CA
:10231000FEF7E5FB0020FEF7E2FBB620FEF7D6FB5A
:102320000020FEF7DCFB0020FEF7D9FBB720FEF70C
:10233000CDFB0020FEF7D3FB0020FEF7D0FB3F20B3
:10234000FEF7CDFB0020FEF7CAFB5E20FEF7C7FBC1
:102350000020FEF7C4FB6420FEF7C1FB0020FEF75F
:10236000BEFB8C20FEF7BBFB0020FEF7B8FBAC20C9
:10237000FEF7B5FB0020FEF7B2FBDC20FEF7AFFB5B
:10238000002001E094090020FEF7A9FB7020FEF771
:10239000A6FB0020FEF7A3FB9020FEF7A0FB002089
:1023A000FEF79DFBEB20FEF79AFB0020FEF797FB64
:1023B000DC20FEF794FB0020FEF791FBB820FEF72F
:1023C00085FB0020FEF78BFB0020FEF788FB00203A
:1023D000FEF785FB0020FEF782FB0020FEF77FFB67
:1023E0000020FEF77CFB0020FEF779FB0020FEF7C3
:1023F00076FBBA20FEF76AFB2420FEF770FB002074
:10240000FEF76DFB0020FEF76AFB0020FEF767FB7E
:10241000C120FEF75BFB2020FEF761FB0020FEF7EA
:102420005EFB5420FEF75BFB0020FEF758FBFF200D
:10243000FEF755FB0020FEF752FBC220FEF746FBDD
:102440000A20FEF74CFB0020FEF749FB0420FEF7B4
:1024500046FB0020FEF743FBC320FEF737FB3C2082
:10246000FEF73DFB0020FEF73AFB3A20FEF737FB74
:102470000020FEF734FB3920FEF731FB0020FEF789
:102480002EFB3720FEF72BFB0020FEF728FB3C201D
:10249000FEF725FB0020FEF722FB3620FEF71FFB90
:1024A0000020FEF71CFB3220FEF719FB0020FEF790
:1024B00016FB2F20FEF713FB0020FEF710FB2C204D
:1024C000FEF70DFB0020FEF70AFB2920FEF707FBB5
:1024D0000020FEF704FB2620FEF701FB0020FEF79C
:1024E000FEFA2420FEF7FBFA0020FEF7F8FA24207B
:1024F000FEF7F5FA0020FEF7F2FA2320FEF7EFFAD6
:102500000020FEF7ECFA3C20FEF7E9FA0020FEF787
:10251000E6FA3620FEF7E3FA0020FEF7E0FA322072
:10252000FEF7DDFA0020FEF7DAFA2F20FEF7D7FAE1
:102530000020FEF7D4FA2C20FEF7D1FA0020FEF797
:10254000CEFA2920FEF7CBFA0020FEF7C8FA2620A3
:10255000FEF7C5FA0020FEF7C2FA2420FEF7BFFA04
:102560000020FEF7BCFA2420FEF7B9FA0020FEF79F
:10257000B6FA2320FEF7B3FA0020FEF7B0FAC42023
:10258000FEF7A4FA6220FEF7AAFA0020FEF7A7FAE7
:102590000520FEF7A4FA0020FEF7A1FA8420FEF73A
:1025A0009EFA0020FEF79BFAF020FEF798FA002032
:1025B000FEF795FA1820FEF792FA0020FEF78FFA40
:1025C000A420FEF78CFA0020FEF789FA1820FEF707
:1025D00086FA0020FEF783FA5020FEF780FA0020EA
:1025E000FEF77DFA0C20FEF77AFA0020FEF777FA64
:1025F0001720FEF774FA0020FEF771FA9520FEF717
:102600006EFA0020FEF76BFAF320FEF768FA00205E
:10261000FEF765FAE620FEF762FA0020FEF75FFAA1
:10262000C520FEF753FA3220FEF759FA0020FEF7D4
:1026300056FA4420FEF753FA0020FEF750FA6520C0
:10264000FEF74DFA0020FEF74AFA7620FEF747FA29
:102650000020FEF744FA8820FEF741FA0020FEF73A
:102660003EFAC620FEF732FA2020FEF738FA0020A4
:10267000FEF735FA1720FEF732FA0020FEF72FFAA0
:102680000120FEF72CFA0020FEF729FAC720FEF7FA
:102690001DFA0020FEF723FA0020FEF720FA0020A2
:1026A000FEF71DFA0020FEF71AFAC820FEF70EFA10
:1026B0000020FEF714FA0020FEF711FA0020FEF7C2
:1026C0000EFA0020FEF70BFAC920FEF7FFF90020F2
:1026D000FEF705FA0020FEF702FA0020FEF7FFF9E8
:1026E0000020FEF7FCF90020FEF7F9F90020FEF7C4
:1026F000F6F90020FEF7F3F90020FEF7F0F90020CC
:10270000FEF7EDF90020FEF7EAF90020FEF7E7F901
:102710000020FEF7E4F90020FEF7E1F90020FEF7C3
:10272000DEF90020FEF7DBF90020FEF7D8F9E02003
:10273000FEF7CCF91620FEF7D2F90020FEF7CFF90C
:102740001C20FEF7CCF90020FEF7C9F92120FEF786
:10275000C6F90020FEF7C3F93620FEF7C0F90020C5
:10276000FEF7BDF94620FEF7BAF90020FEF7B7F9EB
:102770005220FEF7B4F90020FEF7B1F96420FEF70D
:10278000AEF90020FEF7ABF97A20FEF7A8F9002099
:10279000FEF7A5F98B20FEF7A2F90020FEF79FF9BE
:1027A0009920FEF79CF90020FEF799F9A820FEF782
:1027B00096F90020FEF793F9B920FEF790F9002072
:1027C000FEF78DF9C420FEF78AF90020FEF787F99D
:1027D000CA20FEF784F90020FEF781F9D220FEF727
:1027E0007EF90020FEF77BF9D920FEF778F900206A
:1027F000FEF775F9E020FEF772F90020FEF76FF999
:10280000F320FEF76CF90020FEF769F9E120FEF7EE
:102810005DF91620FEF763F90020FEF760F91C2031
:10282000FEF75DF90020FEF75AF92220FEF757F96E
:102830000020FEF754F93620FEF751F90020FEF78C
:102840004EF94520FEF74BF90020FEF748F95220DB
:10285000FEF745F90020FEF742F96420FEF73FF944
:102860000020FEF73CF97A20FEF739F90020FEF748
:1028700036F98B20FEF733F90020FEF730F9992066
:10288000FEF72DF90020FEF72AF9A820FEF727F918
:102890000020FEF724F9B920FEF721F90020FEF709
:1028A0001EF9C420FEF71BF90020FEF718F9CA2014
:1028B000FEF715F90020FEF712F9D220FEF70FF906
:1028C0000020FEF70CF9D820FEF709F90020FEF7EA
:1028D00006F9E020FEF703F90020FEF700F9F320E7
:1028E000FEF7FDF80020FEF7FAF8E220FEF7EEF81A
:1028F0000520FEF7F4F80020FEF7F1F80B20FEF7B4
:10290000EEF80020FEF7EBF81B20FEF7E8F80020B9
:10291000FEF7E5F83420FEF7E2F80020FEF7DFF8D6
:102920004420FEF7DCF80020FEF7D9F84F20FEF730
:10293000D6F80020FEF7D3F86120FEF7D0F800208B
:10294000FEF7CDF87920FEF7CAF80020FEF7C7F8A9
:102950008820FEF7C4F80020FEF7C1F89720FEF7A4
:10296000BEF80020FEF7BBF8A620FEF7B8F800205E
:10297000FEF7B5F8B720FEF7B2F80020FEF7AFF883
:10298000C220FEF7ACF80020FEF7A9F8C720FEF73A
:10299000A6F80020FEF7A3F8D120FEF7A0F800204B
:1029A000FEF79DF8D620FEF79AF80020FEF797F87C
:1029B000DD20FEF794F80020FEF791F8F320FEF7F3
:1029C0008EF80020FEF78BF8E320FEF77FF8052055
:1029D000FEF785F80020FEF782F80A20FEF77FF860
:1029E0000020FEF77CF81C20FEF779F80020FEF7A7
:1029F00076F83320FEF773F80020FEF770F84420D5
:102A0000FEF76DF80020FEF76AF85020FEF767F831
:102A10000020FEF764F86220FEF761F80020FEF760
:102A20005EF87820FEF75BF80020FEF758F8882063
:102A3000FEF755F80020FEF752F89720FEF74FF802
:102A40000020FEF74CF8A620FEF749F80020FEF71C
:102A500046F8B720FEF743F80020FEF740F8C22002
:102A6000FEF73DF80020FEF73AF8C720FEF737F8EA
:102A70000020FEF734F8D120FEF731F80020FEF7F1
:102A80002EF8D520FEF72BF80020FEF728F8DD20E1
:102A9000FEF725F80020FEF722F8F320FEF71FF8D6
:102AA0000020FEF71CF8E420FEF710F80120FEF7E6
:102AB00016F80020FEF713F80120FEF710F80020AA
:102AC000FEF70DF80220FEF70AF80020FEF707F8DF
:102AD0002A20FEF704F80020FEF701F83C20FDF75D
:102AE000FEFF0020FDF7FBFF4B20FDF7F8FF002065
:102AF000FDF7F5FF5D20FDF7F2FF0020FDF7EFFF8A
:102B00007420FDF7ECFF0020FDF7E9FF8420FDF7BE
:102B1000E6FF0020FDF7E3FF9320FDF7E0FF002034
:102B2000FDF7DDFFA220FDF7DAFF0020FDF7D7FF5C
:102B3000B320FDF7D4FF0020FDF7D1FFBE20FDF745
:102B4000CEFF0020FDF7CBFFC420FDF7C8FF00201B
:102B5000FDF7C5FFCD20FDF7C2FF0020FDF7BFFF49
:102B6000D320FDF7BCFF0020FDF7B9FFDD20FDF706
:102B7000B6FF0020FDF7B3FFF320FDF7B0FF002004
:102B8000FDF7ADFFE520FDF7A1FF0020FDF7A7FF52
:102B90000020FDF7A4FF0020FDF7A1FF0020FDF7B6
:102BA0009EFF0220FDF79BFF0020FDF798FF2920E4
:102BB000FDF795FF0020FDF792FF3C20FDF78FFF0A
:102BC0000020FDF78CFF4B20FDF789FF0020FDF76B
:102BD00086FF5D20FDF783FF0020FDF780FF742056
:102BE000FDF77DFF0020FDF77AFF8420FDF777FFDA
:102BF0000020FDF774FF9320FDF771FF0020FDF723
:102C00006EFFA220FDF76BFF0020FDF768FFB320E9
:102C1000FDF765FF0020FDF762FFBE20FDF75FFFB7
:102C20000020FDF75CFFC420FDF759FF0020FDF7F1
:102C300056FFCD20FDF753FF0020FDF750FFD320B6
:102C4000FDF74DFF0020FDF74AFFDC20FDF747FFB1
:102C50000020FDF744FFF320FDF741FF0020FDF7C2
:102C60003EFFE620FDF732FF1120FDF738FF002080
:102C7000FDF735FF3420FDF732FF0020FDF72FFF71
:102C80005620FDF72CFF0020FDF729FF7620FDF7E9
:102C900026FF0020FDF723FF7720FDF720FF00200F
:102CA000FDF71DFF6620FDF71AFF0020FDF717FF57
:102CB0008820FDF714FF0020FDF711FF9920FDF794
:102CC0000EFF0020FDF70BFFBB20FDF708FF0020E3
:102CD000FDF705FF9920FDF702FF0020FDF7FFFE3D
:102CE0006620FDF7FCFE0020FDF7F9FE5520FDF7FC
:102CF000F6FE0020FDF7F3FE5520FDF7F0FE002064
:102D0000FDF7EDFE4520FDF7EAFE0020FDF7E7FEAA
:102D10004320FDF7E4FE0020FDF7E1FE4420FDF72F
:102D2000DEFE0020FDF7DBFEE720FDF7CFFE3220C0
:102D3000FDF7D5FE0020FDF7D2FE5520FDF7CFFEB2
:102D40000020FDF7CCFE7620FDF7C9FE0020FDF740
:102D5000C6FE6620FDF7C3FE0020FDF7C0FE67201B
:102D6000FDF7BDFE0020FDF7BAFE6720FDF7B7FEB8
:102D70000020FDF7B4FE8720FDF7B1FE0020FDF72F
:102D8000AEFE9920FDF7ABFE0020FDF7A8FEBB20AC
:102D9000FDF7A5FE0020FDF7A2FE9920FDF79FFE9E
:102DA0000020FDF79CFE7720FDF799FE0020FDF73F
:102DB00096FE4420FDF793FE0020FDF790FE56207E
:102DC000FDF78DFE0020FDF78AFE2320FDF787FE2C
:102DD0000020FDF784FE3320FDF781FE0020FDF783
:102DE0007EFE4520FDF77BFE0020FDF778FEE82003
:102DF000FDF76CFE0020FDF772FE0020FDF76FFE70
:102E00009920FDF76CFE0020FDF769FE8720FDF795
:102E100066FE0020FDF763FE8820FDF760FE0020BF
:102E2000FDF75DFE7720FDF75AFE0020FDF757FE07
:102E30006620FDF754FE0020FDF751FE8820FDF7C7
:102E40004EFE0020FDF74BFEAA20FDF748FE0020B5
:102E5000FDF745FEBB20FDF742FE0020FDF73FFEDB
:102E60009920FDF73CFE0020FDF739FE6620FDF7B6
:102E700036FE0020FDF733FE5520FDF730FE002022
:102E8000FDF72DFE5520FDF72AFE0020FDF727FE59
:102E90004420FDF724FE0020FDF721FE4420FDF72D
:102EA0001EFE0020FDF71BFE5520FDF718FE00203A
:102EB000FDF715FEE920FDF709FEAA20FDF70FFE3C
:102EC0000020FDF70CFE0020FDF709FE0020FDF7B5
:102ED00006FE0020FDF7FAFDAA20FDF700FECF2038
:102EE000FDF7F4FD0020FDF7FAFD0020FDF7F7FDEA
:102EF0000020FDF7F4FD0020FDF7F1FD0020FDF7B7
:102F0000EEFD0020FDF7EBFD0020FDF7E8FD0020C1
:102F1000FDF7E5FD0020FDF7E2FD0020FDF7DFFDF8
:102F20000020FDF7DCFD0020FDF7D9FD0020FDF7B6
:102F3000D6FD0020FDF7D3FD0020FDF7D0FD0020D9
:102F4000FDF7CDFD0020FDF7CAFDF020FDF7BEFD29
:102F50000020FDF7C4FD5020FDF7C1FD0020FDF766
:102F6000BEFD0020FDF7BBFD0020FDF7B8FDF320FE
:102F7000FDF7ACFD0020FDF7B2FDF920FDF7A6FD41
:102F80000620FDF7ACFD1020FDF7A9FD2920FDF777
:102F9000A6FD0020FDF7A3FD3A20FDF797FD552083
:102FA000FDF79DFD1120FDF791FD642003F06FFEFC
:102FB0002920FDF78BFD3520FDF788FD0020FDF76A
:102FC0008EFD5120FDF782FDFF20FDF788FD532087
:102FD000FDF77CFD2C20FDF782FD5520FDF776FDE9
:102FE0008220FDF77CFD2C20FDF770FD02F0E9B892
:102FF000FE48808845F2105188427DD155214FF41A
:103000007040FDF77EFDAA214FF20100FDF779FD2A
:1030100052214FF20200FDF774FD08214FF2030028
:10302000FDF76FFD01214FF20400FDF76AFD0D2150
:103030004FF43040FDF765FD0D214BF20100FDF727
:1030400060FD0D214BF20200FDF75BFD34214FF4D2
:103050003640FDF756FD34214BF20160FDF751FD7E
:1030600034214BF20260FDF74CFD0D214FF431404D
:10307000FDF747FD0D214BF20110FDF742FD0D213B
:103080004BF20210FDF73DFD34214FF43740FDF7C0
:1030900038FD34214BF20170FDF733FD34214BF242
:1030A0000270FDF72EFD00214FF43240FDF729FD9F
:1030B00000214BF20120FDF724FD00214BF20220FC
:1030C000FDF71FFD24214FF43840FDF71AFD2421A0
:1030D0004BF60100FDF715FD24214BF60200FDF72C
:1030E00010FD01214FF43F40FDF70BFD0F214FF480
:1030F0003340FDF706FD00E0FDE30F214BF2013008
:10310000FDF7FFFC0F214BF20230FDF7FAFC3421F2
:103110004FF43940FDF7F5FC34214BF60110FDF773
:10312000F0FC34214BF60210FDF7EBFC08214FF4C4
:103130003540FDF7E6FC08214BF20150FDF7E1FCBC
:1031400008214BF20250FDF7DCFC03214FF4424012
:10315000FDF7D7FC24214FF43A40FDF7D2FC24219F
:103160004BF60120FDF7CDFC24214BF60220FDF7A4
:10317000C8FC00214FF43C40FDF7C3FC78214BF61E
:103180000140FDF7BEFC00214BF60240FDF7B9FC03
:1031900000214FF43D40FDF7B4FC78214BF601507F
:1031A000FDF7AFFC00214BF60250FDF7AAFC002111
:1031B0004FF43E40FDF7A5FC64214BF60160FDF79E
:1031C000A0FC00214FF45140FDF79BFC33214DF250
:1031D0000110FDF796FC00214DF20210FDF791FC65
:1031E00034214DF20310FDF78CFC00214DF2041048
:1031F000FDF787FC3A214DF20510FDF782FC002116
:103200004DF20610FDF77DFC4A214DF20710FDF747
:1032100078FC00214DF20810FDF773FC5C214DF2A3
:103220000910FDF76EFC00214DF20A10FDF769FC54
:1032300081214DF20B10FDF764FC00214DF20C10C2
:10324000FDF75FFCA6214DF20D10FDF75AFC0021A1
:103250004DF20E10FDF755FCE5214DF20F10FDF774
:1032600050FC01214DF21010FDF74BFC13214DF2E3
:103270001110FDF746FC01214DF21210FDF741FC43
:1032800054214DF21310FDF73CFC01214DF21410B6
:10329000FDF737FC82214DF21510FDF732FC0121BC
:1032A0004DF21610FDF72DFCCA214DF21710FDF757
:1032B00028FC02214DF21810FDF723FC00214DF2ED
:1032C0001910FDF71EFC02214DF21A10FDF719FC32
:1032D00001214DF21B10FDF714FC02214DF21C10D0
:1032E000FDF70FFC34214DF21D10FDF70AFC022101
:1032F0004DF21E10FDF705FC67214DF21F10FDF782
:1033000000FC02214DF22010FDF7FBFB84214DF261
:103310002110FDF7F6FB02214DF22210FDF7F1FB23
:10332000A4214DF22310FDF7ECFB02214DF22410F5
:10333000FDF7E7FBB7214DF22510FDF7E2FB022177
:103340004DF22610FDF7DDFBCF214DF22710FDF7E2
:10335000D8FB02214DF22810FDF7D3FBDE214DF200
:103360002910FDF7CEFB02214DF22A10FDF7C9FB13
:10337000F2214DF22B10FDF7C4FB02214DF22C106F
:10338000FDF7BFFBFE214DF22D10FDF7BAFB032127
:103390004DF22E10FDF7B5FB10214DF22F10FDF769
:1033A000B0FB03214DF23010FDF7ABFB33214DF2A2
:1033B0003110FDF7A6FB03214DF23210FDF7A1FB02
:1033C0006D214DF23310FDF79CFB00214FF452406C
:1033D000FDF797FB33214DF20120FDF792FB002111
:1033E0004DF20220FDF78DFB342101E0940900200D
:1033F0004DF20320FDF785FB00214DF20420FDF77F
:1034000080FB3A214DF20520FDF77BFB00214DF2B8
:103410000620FDF776FB4A214DF20720FDF771FBF0
:1034200000214DF20820FDF76CFB5C214DF20920D4
:10343000FDF767FB00214DF20A20FDF762FB8121B9
:103440004DF20B20FDF75DFB00214DF20C20FDF746
:1034500058FBA6214DF20D20FDF753FB00214DF244
:103460000E20FDF74EFBE5214DF20F20FDF749FB45
:1034700001214DF21020FDF744FB13214DF21120E4
:10348000FDF73FFB01214DF21220FDF73AFB5421DD
:103490004DF21320FDF735FB01214DF21420FDF70D
:1034A00030FB82214DF21520FDF72BFB01214DF25F
:1034B0001620FDF726FBCA214DF21720FDF721FB50
:1034C00002214DF21820FDF71CFB00214DF21920BE
:1034D000FDF717FB02214DF21A20FDF712FB012127
:1034E0004DF21B20FDF70DFB02214DF21C20FDF7D4
:1034F00008FB34214DF21D20FDF703FB02214DF2A4
:103500001E20FDF7FEFA67214DF21F20FDF7F9FAA4
:1035100002214DF22020FDF7F4FA84214DF2212002
:10352000FDF7EFFA02214DF22220FDF7EAFAA4217D
:103530004DF22320FDF7E5FA02214DF22420FDF79C
:10354000E0FAB7214DF22520FDF7DBFA02214DF21A
:103550002620FDF7D6FACF214DF22720FDF7D1FA2C
:1035600002214DF22820FDF7CCFADE214DF2292070
:10357000FDF7C7FA02214DF22A20FDF7C2FAF22127
:103580004DF22B20FDF7BDFA02214DF22C20FDF764
:10359000B8FAFE214DF22D20FDF7B3FA03214DF2CA
:1035A0002E20FDF7AEFA10214DF22F20FDF7A9FADB
:1035B00003214DF23020FDF7A4FA33214DF23120E2
:1035C000FDF79FFA03214DF23220FDF79AFA6D21A3
:1035D0004DF23320FDF795FA00214FF45340FDF7EB
:1035E00090FA33214DF20130FDF78BFA00214DF2B4
:1035F0000230FDF786FA34214DF20330FDF781FAEF
:1036000000214DF20430FDF77CFA3A214DF20530ED
:10361000FDF777FA00214DF20630FDF772FA4A21E4
:103620004DF20730FDF76DFA00214DF20830FDF73D
:1036300068FA5C214DF20930FDF763FA00214DF282
:103640000A30FDF75EFA81214DF20B30FDF759FA91
:1036500000214DF20C30FDF754FAA6214DF20D3049
:10366000FDF74FFA00214DF20E30FDF74AFAE52141
:103670004DF20F30FDF745FA01214DF21030FDF704
:1036800040FA13214DF21130FDF73BFA01214DF2C2
:103690001230FDF736FA54214DF21330FDF731FAAE
:1036A00001214DF21430FDF72CFA82214DF2153034
:1036B000FDF727FA01214DF21630FDF722FACA2153
:1036C0004DF21730FDF71DFA02214DF21830FDF7CB
:1036D00018FA00214DF21930FDF713FA02214DF2CC
:1036E0001A30FDF70EFA01214DF21B30FDF709FAF1
:1036F00002214DF21C30FDF704FA34214DF21D3049
:10370000FDF7FFF902214DF21E30FDF7FAF96721AE
:103710004DF21F30FDF7F5F902214DF22030FDF793
:10372000F0F984214DF22130FDF7EBF902214DF241
:103730002230FDF7E6F9A4214DF22330FDF7E1F93F
:1037400002214DF22430FDF7DCF9B7214DF225308E
:10375000FDF7D7F902214DF22630FDF7D2F9CF213E
:103760004DF22730FDF7CDF902214DF22830FDF75B
:10377000C8F9DE214DF22930FDF7C3F902214DF2DF
:103780002A30FDF7BEF9F2214DF22B30FDF7B9F9E1
:1037900002214DF22C30FDF7B4F9FE214DF22D300F
:1037A000FDF7AFF903214DF22E30FDF7AAF91021F4
:1037B0004DF22F30FDF7A5F903214DF23030FDF722
:1037C000A0F933214DF23130FDF79BF903214DF281
:1037D0003230FDF796F96D214DF23330FDF791F956
:1037E00000214FF45440FDF78CF933214DF2014094
:1037F000FDF787F900214DF20240FDF782F93421EF
:103800004DF20340FDF77DF900214DF20440FDF734
:1038100078F93A214DF20540FDF773F900214DF298
:103820000640FDF76EF94A214DF20740FDF769F9B0
:1038300000214DF20840FDF764F95C214DF209408A
:10384000FDF75FF900214DF20A40FDF75AF9812199
:103850004DF20B40FDF755F900214DF20C40FDF7FC
:1038600050F9A6214DF20D40FDF74BF900214DF224
:103870000E40FDF746F9E5214DF20F40FDF741F905
:1038800001214DF21040FDF73CF913214DF211409A
:10389000FDF737F901214DF21240FDF732F95421BD
:1038A0004DF21340FDF72DF901214DF21440FDF7C3
:1038B00028F982214DF21540FDF723F901214DF23F
:1038C0001640FDF71EF9CA214DF21740FDF719F910
:1038D00002214DF21840FDF714F900214DF2194074
:1038E000FDF70FF902214DF21A40FDF70AF9012107
:1038F0004DF21B4000E006E3FDF703F902214DF213
:103900001C40FDF7FEF834214DF21D40FDF7F9F89B
:1039100002214DF21E40FDF7F4F867214DF21F40E1
:10392000FDF7EFF802214DF22040FDF7EAF884217F
:103930004DF22140FDF7E5F802214DF22240FDF75E
:10394000E0F8A4214DF22340FDF7DBF802214DF20F
:103950002440FDF7D6F8B7214DF22540FDF7D1F808
:1039600002214DF22640FDF7CCF8CF214DF2274041
:10397000FDF7C7F802214DF22840FDF7C2F8DE211D
:103980004DF22940FDF7BDF802214DF22A40FDF726
:10399000B8F8F2214DF22B40FDF7B3F802214DF2B9
:1039A0002C40FDF7AEF8FE214DF22D40FDF7A9F8B1
:1039B00003214DF22E40FDF7A4F810214DF22F40C7
:1039C000FDF79FF803214DF23040FDF79AF83321BF
:1039D0004DF23140FDF795F803214DF23240FDF7ED
:1039E00090F86D214DF23340FDF78BF800214FF434
:1039F0005540FDF786F833214DF20150FDF781F86F
:103A000000214DF20250FDF77CF834214DF20350B5
:103A1000FDF777F800214DF20450FDF772F83A21D6
:103A20004DF20550FDF76DF800214DF20650FDF7FF
:103A300068F84A214DF20750FDF763F800214DF276
:103A40000850FDF75EF85C214DF20950FDF759F87A
:103A500000214DF20A50FDF754F881214DF20B5030
:103A6000FDF74FF800214DF20C50FDF74AF8A62162
:103A70004DF20D50FDF745F800214DF20E50FDF7C7
:103A800040F8E5214DF20F50FDF73BF801214DF2D2
:103A90001050FDF736F813214DF21150FDF731F8B3
:103AA00001214DF21250FDF72CF854214DF2135024
:103AB000FDF727F801214DF21450FDF722F882217D
:103AC0004DF21550FDF71DF801214DF21650FDF78E
:103AD00018F8CA214DF21750FDF713F802214DF2E4
:103AE0001850FDF70EF800214DF21950FDF709F8B6
:103AF00002214DF21A50FDF704F801214DF21B503E
:103B0000FCF7FFFF02214DF21C50FCF7FAFF3421B5
:103B10004DF21D50FCF7F5FF02214DF21E50FCF74F
:103B2000F0FF67214DF21F50FCF7EBFF02214DF231
:103B30002050FCF7E6FF84214DF22150FCF7E1FF15
:103B400002214DF22250FCF7DCFFA4214DF223505C
:103B5000FCF7D7FF02214DF22450FCF7D2FFB7212A
:103B60004DF22550FCF7CDFF02214DF22650FCF717
:103B7000C8FFCF214DF22750FCF7C3FF02214DF2C1
:103B80002850FCF7BEFFDE214DF22950FCF7B9FFAB
:103B900002214DF22A50FCF7B4FFF2214DF22B50D6
:103BA000FCF7AFFF02214DF22C50FCF7AAFFFE21DB
:103BB0004DF22D50FCF7A5FF03214DF22E50FCF7DE
:103BC000A0FF10214DF22F50FCF79BFF03214DF277
:103BD0003050FCF796FF33214DF23150FCF791FF46
:103BE00003214DF23250FCF78CFF6D214DF2335022
:103BF000FCF787FF00214FF45640FCF782FF33218A
:103C00004DF20160FCF77DFF00214DF20260FCF7F0
:103C100078FF34214DF20360FCF773FF00214DF271
:103C20000460FCF76EFF3A214DF20560FCF769FF76
:103C300000214DF20660FCF764FF4A214DF2076057
:103C4000FCF75FFF00214DF20860FCF75AFF5C2192
:103C50004DF20960FCF755FF00214DF20A60FCF7B8
:103C600050FF81214DF20B60FCF74BFF00214DF21C
:103C70000C60FCF746FFA6214DF20D60FCF741FFFA
:103C800000214DF20E60FCF73CFFE5214DF20F6084
:103C9000FCF737FF01214DF21060FCF732FF1321D2
:103CA0004DF21160FCF72DFF01214DF21260FCF77F
:103CB00028FF54214DF21360FCF723FF01214DF240
:103CC0001460FCF71EFF82214DF21560FCF719FF0E
:103CD00001214DF21660FCF714FFCA214DF2176066
:103CE000FCF70FFF02214DF21860FCF70AFF0021DC
:103CF0004DF21960FCF705FF02214DF21A60FCF746
:103D000000FF01214DF21B60FCF7FBFE02214DF28A
:103D10001C60FCF7F6FE34214DF21D60FCF7F1FE4D
:103D200002214DF21E60FCF7ECFE67214DF21F6090
:103D3000FCF7E7FE02214DF22060FCF7E2FE842151
:103D40004DF22160FCF7DDFE02214DF22260FCF70E
:103D5000D8FEA4214DF22360FCF7D3FE02214DF2E0
:103D60002460FCF7CEFEB7214DF22560FCF7C9FEBA
:103D700002214DF22660FCF7C4FECF214DF22760F0
:103D8000FCF7BFFE02214DF22860FCF7BAFEDE21EF
:103D90004DF22960FCF7B5FE02214DF22A60FCF7D6
:103DA000B0FEF2214DF22B60FCF7ABFE02214DF28A
:103DB0002C60FCF7A6FEFE214DF22D60FCF7A1FE63
:103DC00003214DF22E60FCF79CFE10214DF22F6076
:103DD000FCF797FE03214DF23060FCF792FE332191
:103DE0004DF23160FCF78DFE03214DF23260FCF79D
:103DF00088FE6D214DF23360FCF783FE55214FF4B0
:103E00007040FCF77EFEAA214FF20100FCF779FE1C
:103E100052214FF20200FCF774FE08214FF203001A
:103E2000FCF76FFE00214FF20400FCF76AFECC2184
:103E30004FF43140FCF765FE00214BF20110FCF716
:103E400060FE05214FF43640FCF75BFE70214FF415
:103E50003740FCF756FE70214BF20170FCF751FE23
:103E600001214FF43840FCF74CFE03214BF60100D2
:103E7000FCF747FE03214BF60200FCF742FE03214C
:103E80004BF60300FCF73DFE02214FF43C40FCF7EB
:103E900038FE00214BF60140FCF733FE00214BF6C3
:103EA0000240FCF72EFED0214FF44940FCF729FEDA
:103EB00002214CF60110FCF724FE50214CF60210B2
:103EC000FCF71FFE50214CF60310FCF71AFE5021A0
:103ED0004CF60410FCF715FE00214FF45450FCF78B
:103EE00010FE55214FF46850FCF70BFE4FF488503C
:103EF000FCF7ECFD782002F0A0FE4FF42450FCF714
:103F0000E5FD01F05EB9FE48808849F2253188421E
:103F10007ED147F6F001E520FCF7F3FD4FF4807108
:103F20000120FCF7EEFD4FF4E0610220FCF7E9FD13
:103F300041F230010320FCF7E4FD00210420FCF7EE
:103F4000E0FD40F202210820FCF7DBFD0021092002
:103F5000FCF7D7FD00210A20FCF7D3FD00210C203F
:103F6000FCF7CFFD00210D20FCF7CBFD00210F2039
:103F7000FCF7C7FD00211020FCF7C3FD072111202D
:103F8000FCF7BFFD00211220FCF7BBFD0021132030
:103F9000FCF7B7FD00210720FCF7B3FD41F290616B
:103FA0001020FCF7AEFD40F227211120FCF7A9FDFF
:103FB0009D211220FCF7A5FD4FF4C8511320FCF7FA
:103FC000A0FD25212920FCF79CFD0D212B20FCF7CD
:103FD00098FD07213020FCF794FD40F20331312099
:103FE000FCF78FFD03213220FCF78BFD40F2062108
:103FF0003520FCF786FD08213620FCF782FD40F2D3
:1040000006413720FCF77DFD4FF44171382000E078
:1040100057E0FCF776FD07213920FCF772FD40F2EE
:1040200002613C20FCF76DFD08213D20FCF769FD95
:1040300000215020FCF765FDEF215120FCF761FDC8
:1040400000215220FCF75DFD40F23F115320FCF7A8
:1040500058FD4FF427416020FCF753FD01216120FA
:10406000FCF74FFD00216A20FCF74BFD002180206A
:10407000FCF747FD00218120FCF743FD0021822051
:10408000FCF73FFD00218320FCF73BFD002184204D
:10409000FCF737FD00218520FCF733FD102190202F
:1040A000FCF72FFD4FF4C0619220FCF72AFD40F28F
:1040B00033110720FCF725FD22210020FCF721FD0C
:1040C0001FE78F48808849F2283188427ED141F22B
:1040D0008F01EC20FCF715FD41F23421EF20FCF7B5
:1040E00010FD4FF480710120FCF70BFD4FF4E061EF
:1040F0000220FCF706FD41F230010320FCF701FD30
:1041000000210420FCF7FDFC40F202210820FCF70E
:10411000F8FC00210920FCF7F4FC00210A20FCF740
:10412000F0FC01210C20FCF7ECFC00210D20FCF739
:10413000E8FC00210F20FCF7E4FC00211020FCF734
:10414000E0FC07211120FCF7DCFC00211220FCF729
:10415000D8FC00211320FCF7D4FC01210720FCF738
:10416000D0FC322002F093FD41F290411020FCF788
:10417000C8FC40F227211120FCF7C3FC322002F0DA
:1041800086FD8A211220FCF7BCFC322002F07FFD64
:104190004FF4D0511320FCF7B4FC06212920FCF782
:1041A000B0FC0D212B20FCF7ACFC322002F06FFD9F
:1041B00000212020FCF7A5FC00212120FCF7A1FC18
:1041C000322002F064FD0021302000E074E0FCF7B2
:1041D00098FC40F204613120FCF793FC40F2053179
:1041E0003220FCF78EFC00213520FCF78AFC40F6DB
:1041F00009413620FCF785FC4FF401713720FCF7AC
:1042000080FC40F201313820FCF77BFC40F2077162
:104210003920FCF776FC00213C20FCF772FC40F6CC
:104220000A213D20FCF76DFC322002F030FD002118
:104230005020FCF766FCEF215120FCF762FC0021C6
:104240005220FCF75EFC40F23F115320FCF759FC72
:104250004FF427416020FCF754FC01216120FCF75A
:1042600050FC00216A20FCF74CFC00218020FCF768
:1042700048FC00218120FCF744FC00218220FCF74F
:1042800040FC00218320FCF73CFC00218420FCF74B
:1042900038FC00218520FCF734FC10219020FCF72D
:1042A00030FC4FF4C0619220FCF72BFC40F233113C
:1042B0000720FCF726FC24E61148808849F22031CB
:1042C00088427DD100210846FCF71BFC4FF4807129
:1042D0000120FCF716FC4FF4E0610220FCF711FC12
:1042E00041F230010320FCF70CFC00210420FCF714
:1042F00008FC40F202210820FCF703FC002101E049
:10430000940900200920FCF7FCFB00210A20FCF79F
:10431000F8FB01210C20FCF7F4FB00210D20FCF739
:10432000F0FB00210F20FCF7ECFB322002F0AFFC89
:1043300040F201110720FCF7E4FB322002F0A7FC59
:104340004FF486511020FCF7DCFB07211120FCF70D
:10435000D8FB4FF488711220FCF7D3FB4FF4306187
:104360001320FCF7CEFB00212920FCF7CAFB44F206
:1043700010012B20FCF7C5FB00215020FCF7C1FBEE
:10438000EF215120FCF7BDFB00215220FCF7B9FBC7
:1043900040F23F115320FCF7B4FB4FF41C51602056
:1043A000FCF7AFFB01216120FCF7ABFB00216A2089
:1043B000FCF7A7FB00218020FCF7A3FB002100E015
:1043C00031E08120FCF79DFB00218220FCF799FB66
:1043D00000218320FCF795FB00218420FCF791FB52
:1043E00000218520FCF78DFB10219020FCF789FB34
:1043F00000219220FCF785FB01219320FCF781FB33
:104400004FF488719520FCF77CFB00219720FCF786
:1044100078FB00219820FCF774FB40F27311072011
:10442000FCF76FFB6DE5FE48808849F23131884228
:104430007DD141F21401E720FCF763FB4FF480715A
:104440000120FCF75EFB4FF400710220FCF759FBE2
:1044500041F238010320FCF754FB40F2022108200E
:10446000FCF74FFB00210920FCF74BFB00210A2041
:10447000FCF747FB00210C20FCF743FB00210D203B
:10448000FCF73FFB00210F20FCF73BFB0021102035
:10449000FCF737FB07211120FCF733FB002112202A
:1044A000FCF72FFB00211320FCF72BFBC82002F0A8
:1044B000EEFB41F290611020FCF723FB40F2272134
:1044C0001120FCF71EFB322002F0E1FB0C21122030
:1044D000FCF717FB322002F0DAFB4FF400611320E7
:1044E000FCF70FFB11212920FCF70BFB0B212B20E4
:1044F000FCF707FB322002F0CAFB00212020FCF76A
:1045000000FB40F23F112120FCF7FBFA0021302094
:10451000FCF7F7FA4FF483713120FCF7F2FA00212F
:104520003220FCF7EEFA4FF40171352000E064E030
:10453000FCF7E7FA41F20A613620FCF7E2FA40F2B2
:1045400007713720FCF7DDFA4FF483713820FCF750
:10455000D8FA40F207713920FCF7D3FA40F2024151
:104560003C20FCF7CEFA40F60F413D20FCF7C9FA9B
:1045700000215020FCF7C5FAEF215120FCF7C1FAC9
:1045800000215220FCF7BDFA40F23F115320FCF706
:10459000B8FA4FF41C516020FCF7B3FA01216120F6
:1045A000FCF7AFFA00216A20FCF7ABFA002180206B
:1045B000FCF7A7FA00218120FCF7A3FA0021822052
:1045C000FCF79FFA00218320FCF79BFA002184204E
:1045D000FCF797FA00218520FCF793FA1021902030
:1045E000FCF78FFA4FF4C0619220FCF78AFA40F290
:1045F00033110720FCF785FA83E48948808845F267
:10460000084188427ED14FF480710120FCF779FA8D
:104610004FF4E0610220FCF774FA41F2300103200C
:10462000FCF76FFA00210420FCF76BFA40F2072137
:104630000820FCF766FA00210920FCF762FA002145
:104640000A20FCF75EFA00210C20FCF75AFA002140
:104650000D20FCF756FA00210F20FCF752FA142027
:1046600002F015FB41F2B0611020FCF74AFA01217B
:104670001120FCF746FA01211720FCF742FA4FF40B
:104680009C711220FCF73DFA4FF400611320FCF7F7
:1046900038FA09212920FCF734FA09212A20FCF7ED
:1046A00030FA0021A420FCF72CFA00215020FCF75E
:1046B00028FAEF215120FCF724FA00215220FCF7C0
:1046C00020FA40F23F115320FCF71BFA4FF41C5123
:1046D0006020FCF716FA01216120FCF712FA002194
:1046E0006A20FCF70EFA00218020FCF70AFA00216C
:1046F0008120FCF706FA00218220FCF702FA002153
:10470000832000E023E0FCF7FCF900218420FCF783
:10471000F8F900218520FCF7F4F913219020FCF72B
:10472000F0F900219220FCF7ECF903219320FCF72B
:10473000E8F94FF488719520FCF7E3F940F2731122
:104740000720FCF7DEF9322002F0A1FAB8E4344881
:10475000808841F2055188427ED100210720FCF774
:10476000D0F9322002F093FA4FF48E711220FCF748
:10477000C8F90121A420FCF7C4F90F210820FCF797
:10478000C0F908210A20FCF7BCF908210D20FCF72C
:10479000B8F940F207713020FCF7B3F90721312056
:1047A000FCF7AFF940F203613220FCF7AAF94FF4AD
:1047B000E0613320FCF7A5F940F202213420FCF738
:1047C000A0F902213520FCF79CF941F60F71362043
:1047D000FCF797F940F207713720FCF792F90021B6
:1047E0003820FCF78EF900213920FCF78AF940F2D5
:1047F00007713A20FCF785F900213B20FCF781F98D
:1048000007213C20FCF77DF900213D20FCF779F9D8
:10481000322002F03CFA01210720FCF772F901E096
:104820009409002001211720FCF76BF9322002F0D7
:104830002EFA4FF4BD511020FCF763F940F2172116
:104840001120FCF75EF94FF48F711220FCF759F933
:104850004FF47061132000E097E0FCF752F900215B
:104860002A20FCF74EF90A212920FCF74AF94FF4D7
:104870009F711220FCF745F900215020FCF741F907
:10488000EF215120FCF73DF900215220FCF739F9C6
:1048900040F23F115320FCF734F94FF41C516020D3
:1048A000FCF72FF901216120FCF72BF900216A2088
:1048B000FCF727F900218020FCF723F90021812053
:1048C000FCF71FF900218220FCF71BF9002183204F
:1048D000FCF717F900218420FCF713F9002185204B
:1048E000FCF70FF913219020FCF70BF94FF44071FE
:1048F0009220FCF706F905219320FCF702F900212C
:104900009520FCF7FEF800219720FCF7FAF800212B
:104910009820FCF7F6F84FF480710120FCF7F1F8CD
:104920004FF4E0610220FCF7ECF841F2380103207B
:10493000FCF7E7F800210420FCF7E3F800210C2045
:10494000FCF7DFF800210F20FCF7DBF80021202026
:10495000FCF7D7F800212120FCF7D3F8212107200C
:10496000FCF7CFF8142002F092F961210720FCF740
:10497000C8F8142002F08BF940F273110720FCF7FD
:10498000C0F8142002F083F995E4FE4880884BF2C9
:10499000055188427ED100210846FCF7B2F800217B
:1049A0000846FCF7AEF800210846FCF7AAF80021FB
:1049B0000846FCF7A6F80121A420FCF7A2F8142071
:1049C00002F065F94FF41C516020FCF79AF840F2B0
:1049D00002210820FCF795F84FF405713020FCF710
:1049E00090F843F215713120FCF78BF840F2046126
:1049F0003220FCF786F840F616613320FCF781F888
:104A000042F211213420FCF77CF84FF4A8513520F4
:104A1000FCF777F848F207513620FCF772F841F2BC
:104A200007413720FCF76DF841F203413820FCF7CD
:104A300068F820213920FCF764F81A219020FCF74F
:104A400060F800211020FCF75CF807211120FCF72A
:104A500058F800211220FCF754F800211320FCF72D
:104A600050F8142002F013F94FF4E6611020FCF71F
:104A700048F840F237111120FCF743F8142002F0F7
:104A800006F94FF4DC711220FCF73BF8142002F019
:104A9000FEF800E083E04FF470611320FCF731F87A
:104AA00080212A20FCF72DF848212920FCF729F83D
:104AB000142002F0ECF84FF480710120FCF721F88B
:104AC0004FF4E0610220FCF71CF841F238010320AA
:104AD000FCF717F840F202210820FCF712F8002139
:104AE0000A20FCF70EF800210C20FCF70AF8002140
:104AF0000D20FCF706F830210E20FCF702F800210B
:104B00005020FBF7FEFFEF215120FBF7FAFF0021B9
:104B10005220FBF7F6FF40F23F115320FBF7F1FF65
:104B20004FF41C516020FBF7ECFF01216120FBF7E3
:104B3000E8FF00216A20FBF7E4FF11219020FBF73A
:104B4000E0FF4FF4C0619220FBF7DBFF40F202412F
:104B50009320FBF7D6FF02219420FBF7D2FF14200D
:104B600002F095F801210720FBF7CBFF142002F09B
:104B70008EF861210720FBF7C4FF40F27311072074
:104B8000FBF7BFFF00212020FBF7BBFF0021212006
:104B9000FBF7B7FF22210020FBF7B3FF11E37948B1
:104BA00080884CF2055188427ED100210846FBF7EF
:104BB000A8FF00210846FBF7A4FF142002F067F8C5
:104BC00000210846FBF79DFF00210846FBF799FFEF
:104BD00000210846FBF795FF00210846FBF791FFEF
:104BE0000121A420FBF78DFF142002F050F84FF4B0
:104BF0001C516020FBF785FF40F606010820FBF7FB
:104C000080FF40F203713020FBF77BFF0121312050
:104C1000FBF777FF04213220FBF773FF4FF481711C
:104C20003320FBF76EFF4FF440713420FBF769FF30
:104C300040F203113520FBF764FF1F213620FBF7FC
:104C400060FF40F203713720FBF75BFF0121382042
:104C5000FBF757FF04213920FBF753FF1521902064
:104C6000FBF74FFF4FF482611020FBF74AFF40F241
:104C700047211120FBF745FF4FF4DE711220FBF7AF
:104C800040FF4FF460611320FBF73BFF782001F0F9
:104C9000FEFF4FF480710120FBF733FF4FF40071EA
:104CA0000220FBF72EFF00E050E041F2300103202C
:104CB000FBF727FF08210A20FBF723FF00210C2028
:104CC000FBF71FFF20210E20FBF71BFF00210F2009
:104CD000FBF717FF00212020FBF713FF0021212005
:104CE000FBF70FFF3D212A20FBF70BFF142001F0FB
:104CF000CEFF2D212920FBF704FF00215020FBF7D8
:104D000000FF4DF2EF015120FBF7FBFE0021522086
:104D1000FBF7F7FE40F23F115320FBF7F2FE0021B4
:104D20006120FBF7EEFE00216A20FBF7EAFE4FF45C
:104D300040719220FBF7E5FE05219320FBF7E1FE91
:104D40004FF480710720FBF7DCFE3AE20D488088C3
:104D500044F2315188427CD101210020FBF7D1FE81
:104D60000A2001F094FF41F228611020FBF7C9FEF0
:104D70000E211220FBF7C5FE40F639211320FBF768
:104D8000C0FE01E0940900200A2001F080FF4021CC
:104D90001120FBF7B6FE50211520FBF7B2FE0A20CA
:104DA00001F075FF1E211220FBF7ABFE0A2001F077
:104DB0006EFF4FF4B1511020FBF7A3FE42F63921EC
:104DC0001320FBF79EFE0A2001F061FF4FF4807173
:104DD0000120FBF796FE4FF440710220FBF791FE95
:104DE00041F238010320FBF78CFE40F2022108203B
:104DF000FBF787FE08210A20FBF783FE0021302005
:104E0000FBF77FFE40F202413120FBF77AFE4FF4C0
:104E100083713220FBF775FE40F203513320FBF71C
:104E200070FE4FF482713420FBF76BFE40F20131CB
:104E30003520FBF766FE40F207713620FBF761FE76
:104E400040F205313720FBF75CFE4FF40271382049
:104E500000E040E0FBF755FE40F60B713920FBF710
:104E600050FE02214120FBF74CFE4FF41C51602004
:104E7000FBF747FE01216120FBF743FE4FF404716D
:104E80009020FBF73EFE4FF485719220FBF739FE30
:104E900004219320FBF735FE4FF48071A020FBF72F
:104EA00030FE01210720FBF72CFE21210720FBF714
:104EB00028FE23210720FBF724FE33210720FBF7E0
:104EC00020FE40F233110720FBF71BFE0021A0203B
:104ED000FBF717FE75E1F848808844F235518842A7
:104EE0007ED130211520FBF70CFE10219A20FBF714
:104EF00008FE20211120FBF704FE43F22841102078
:104F0000FBF7FFFD02211220FBF7FBFD41F2380108
:104F10001320FBF7F6FD282001F0B9FE1221084608
:104F2000FBF7EFFD282001F0B2FE43F220411020F4
:104F3000FBF7E7FD43F238011320FBF7E2FD4620C3
:104F400001F0A5FE00213020FBF7DBFD40F202411D
:104F50003120FBF7D6FD40F207313220FBF7D1FDBF
:104F60004FF441713320FBF7CCFD04213420FBF7D3
:104F7000C8FD40F201413520FBF7C3FD40F2077147
:104F80003620FBF7BEFD40F205313720FBF7B9FDB7
:104F90004FF4C2613820FBF7B4FD4FF4C2613920F1
:104FA000FBF7AFFD4FF480710120FBF7AAFD4FF432
:104FB00040710220FBF7A5FD41F230010320FBF711
:104FC000A0FD40F608010820FBF79BFD08210A2000
:104FD000FBF797FD4FF41C516020FBF792FD00E0BA
:104FE00031E001216120FBF78CFD4FF49F7190208F
:104FF000FBF787FD4FF480719220FBF782FD4FF4A1
:1050000080719320FBF77DFD4FF44051A020FBF70A
:1050100078FD1021A320FBF774FD01210720FBF789
:1050200070FD21210720FBF76CFD23210720FBF7F2
:1050300068FD33210720FBF764FD40F233110720A0
:10504000FBF75FFDBDE09C48808841F66311884214
:10505000F8D1E220FBF73AFD1D20FBF740FD0220CE
:10506000FBF73DFD0420FBF73AFD642001F0E5FD70
:10507000E020FBF72BFD0120FBF731FD0A2001F0BA
:1050800006FEE020FBF722FD0320FBF728FD0C20A5
:1050900001F0FDFD0120FBF719FD0A2001F0F7FDED
:1050A000E620FBF713FD2F20FBF719FDFF20FBF790
:1050B00016FDFF20FBF713FDB020FBF707FD2020B6
:1050C000FBF70DFD0020FBF70AFD0320FBF707FDB2
:1050D00040F21F30FBF703FD0120FBF700FD40F21B
:1050E000DF10FBF7FCFC0020FBF7F9FCB420FBF71A
:1050F000EDFC0420FBF7F3FC40F21F40FBF7EFFC54
:105100000020FBF7ECFC2E20FBF7E9FC1D20FBF751
:10511000E6FC0020FBF7E3FC0020FBF7E0FC0020AE
:10512000FBF7DDFCB620FBF7D1FC0220FBF7D7FC38
:105130004FF40370FBF7D3FC0020FBF7D0FC1720E3
:10514000FBF7CDFC1520FBF7CAFC0020FBF7C7FCE2
:105150000020FBF7C4FCF020FBF7B8FC0320FBF7B2
:10516000BEFC2920FBF7B2FCD020FBF7AFFC0020EF
:10517000FBF7B5FCBE20FBF7A9FC0520FBF7AFFC55
:10518000FE20FBF7ACFC0120FBF7A9FC0020FBF79D
:10519000A6FC0020FBF7A3FC0020FBF7A0FCB82036
:1051A000FBF794FC0320FBF79AFC0120FBF797FC2C
:1051B000BA20FBF78BFC0120FBF791FC6420FCF785
:1051C0000BF90020FCF734F901203C4908604FF648
:1051D000FF70FCF71CFB21B000BD2DE9FC4F05461C
:1051E0000E4617469846DDF82C9000200190324874
:1051F000808846F60401884229D12F488079012809
:1052000025D1AB4635462C480088C01B401E86B2CF
:10521000474629480088A0EB0B00401E1FFA80F883
:105220000020254988712A2048812B208881434607
:105230003A4631462846CDF80090FFF7CEFF0120D0
:105240001D4988712B2048812A2088811DE0781B08
:10525000401C80B20190344615E021462846FBF7F9
:1052600084FCFBF765FC4FF0000A07E04FF0D840E4
:10527000A0F880900AF101001FFA80FA0198824597
:10528000F4DB601C84B24445E7DDBDE8FC8F2DE90A
:10529000F84F07460D4690469946DDF828B0A8EB32
:1052A0000700401C1FFA80FAA9EB0500401C80B2E1
:1052B0000090002419E0000094090020BC824042C4
:1052C000281981B23846FBF750FCFBF731FC002669
:1052D00007E004FB0A603BF81000F8490880701CE6
:1052E00086B25645F5DB601C84B200988442E7DB49
:1052F000BDE8F88F2DE9FF4F84B081468A46002033
:10530000039002900698A0EB09050798A0EB0A0607
:10531000CDF80490CDF800A0002D01DD012705E0B7
:105320000DB9002702E04FF0FF376D42002E02DD7D
:105330004FF0010806E016B94FF0000802E04FF008
:10534000FF387642B54201DD2C4600E034464FF08E
:10535000000B21E0009A91B2019A90B2FBF76CFF2A
:105360000398284403900298304402900398A04286
:1053700005DD0398001B03900198384401900298C2
:10538000A04205DD0298001B029000984044009066
:105390000BF101001FFA80FB601C8345DADD08B0C9
:1053A000BDE8F08FF0B504460D4616461F462B4665
:1053B000324629462046FFF79DFF3B4622462946B6
:1053C0002046FFF797FF3B46324639462046FFF717
:1053D00091FF3B46324629463046FFF78BFFF0BD32
:1053E0002DE9F04306460F4690460024454603202B
:1053F000A0EB48093CE07A1B91B2321990B2FBF75E
:105400001BFF3A1B91B2721990B2FBF715FF3A19C4
:1054100091B2721990B2FBF70FFF7A1991B232195B
:1054200090B2FBF709FF7A1991B2321B90B2FBF7E9
:1054300003FF3A1991B2721B90B2FBF7FDFE7A1B83
:1054400091B2321B90B2FBF7F7FE3A1B91B2721B7E
:1054500090B2FBF7F1FE641CB9F1000F03DAA00073
:10546000801D814404E0601B80000A3081446D1E71
:10547000AC42C0DDBDE8F0832DE9F84F80460E4612
:1054800017461C46B3462046E31704EB5373DB1064
:1054900021464FEAE47C04EB5C7C4FEAEC0CA4EB85
:1054A000CC0CBCF1000F02D04FF0010C01E04FF02A
:1054B000000C6344224604EBD27C4FEA6C0C03FBE5
:1054C0000CF3DBB20093A7F12000C7B2002556E031
:1054D0000C2C07D107EB4700794901EB800010F84D
:1054E000059013E0102C05D1764800EB071010F85A
:1054F00005900BE0182C07D107EBC700724901EBB0
:10550000800010F8059001E0BDE8F88F4FF0000A28
:105510002FE009F0800030B16C48028831464046E7
:10552000FBF798FE07E00A9828B9694802883146D7
:105530004046FBF78FFE4FEA49604FEA1069701C46
:1055400086B264484088B04200DCDDE7A6EB0B0081
:10555000A0420AD15E4608F101001FFA80F85D48BA
:105560000088404500DCCFE706E00AF1010000F0CA
:10557000FF0ABAF1080FCCDB00BF681CC5B2009867
:105580008542A5DB00BFBFE710B50246012000E061
:1055900050430B00A1F10104E1B2F9D110BD2DE996
:1055A000FF4F81B0074691461E460E9D4FF0000A00
:1055B000002439E0301B401EC1B20A20FFF7E4FF8F
:1055C000B9FBF0F00A21B0FBF1F201FB1208BAF1CD
:1055D000000F16D1701EA04213DDB8F1000F0ED1DE
:1055E0000020AB4605EBDB71491001FB0471009014
:1055F00088B22B4620220299FFF73EFF12E04FF0BF
:10560000010A0020AB4605EBDB71491001FB047178
:10561000009088B208F13001CAB22B460299FFF718
:105620002BFF00BF601CC4B2B442C3DB05B0BDE8B1
:10563000F08F2DE9FF4F82B0064692461F46DDE906
:105640000F480020019000255CE0781B401EC1B28D
:105650000A20FFF799FFBAFBF0F00A21B0FBF1F244
:1056600001FB1209019840BB781EA84236DDB9F152
:10567000000F31D108F0800078B108F00100A34696
:1056800004EBDB71491001FB0561009088B22346F1
:1056900030220399FFF7F0FE0EE008F00100A34668
:1056A00004EBDB71491001FB0561009088B22346D1
:1056B00020220399FFF7E0FE22E00FE08000006C5B
:1056C0001A0C01088E1001087E1601084C000020FB
:1056D0004E000020940900200120019008F00100F4
:1056E000A34604EBDB71491001FB0561009088B211
:1056F00009F13001CAB223460399FFF7BDFE00BF8E
:10570000681CC5B2BD42A0DB06B0BDE8F08F2DE934
:10571000F84704460D4690469946DDE9096704F0CE
:10572000FF0A08EB04001FFA80F809EB05001FFAD6
:1057300080F916E0444502DB5446A81985B24D4570
:1057400000DB14E0002000903A78334629462046DA
:10575000FFF792FE304606EBD07104EB61018CB28C
:105760007F1C38787E2802DC38782028E2DA00BFF7
:10577000BDE8F8870948804709480047FEE7FEE78B
:10578000FEE7FEE7FEE7FEE7FEE7FEE7FEE7FEE7F1
:1057900004480549054A064B7047000059090008AE
:1057A00089010008982A002098300020982C0020B9
:1057B000982C002032490143324A1160704770B57D
:1057C000002100230F22C4781CB32E4C246804F45B
:1057D000E064C4F5E064C4F30721C1F10404E3B25A
:1057E0000A4144789C40E1B28478144021430C077C
:1057F000210E254C05786155047804F01F0501241D
:10580000AC4005786D11AD0005F1E025C5F800410B
:1058100009E0047804F01F050124AC401B4D067814
:10582000761145F8264070BD194A0A400243154BCF
:105830001B1F1A60704739B1124A121D12680243C9
:10584000104B1B1D1A6006E00E4A121D126882439F
:105850000C4B1B1D1A607047042808D14FF0E02143
:10586000096941F004014FF0E022116107E04FF0B7
:10587000E021096921F004014FF0E0221161704735
:105880000000FA050CED00E000E400E080E100E03B
:1058900080FFFF1F10B504469848844208D10121BB
:1058A000084600F086FB0021012000F082FB76E034
:1058B0009348844208D10121022000F07AFB0021A4
:1058C000022000F076FB6AE08E48844208D1012174
:1058D000042000F06EFB0021042000F06AFB5EE073
:1058E0008948844208D10121082000F062FB002190
:1058F000082000F05EFB52E08448844208D1012178
:10590000102000F056FB0021102000F052FB46E072
:105910007F48844208D10121202000F04AFB002169
:10592000202000F046FB3AE07A48844208D1012169
:10593000402000F03EFB0021402000F03AFB2EE02A
:105940007548844208D10121802000F032FB0021FB
:10595000802000F02EFB22E07048844208D1012113
:10596000801500F026FB0021A01500F022FB16E0B8
:105970006B48844208D10121401500F01AFB002138
:10598000601500F016FB0AE06648844207D1012149
:10599000001500F00EFB0021201500F00AFB10BDE1
:1059A000F0B50A4600210023002400BF3DE0012598
:1059B00005FA01F3156805EA03049C4234D1056831
:1059C0004F000326BE40B543056015794E00B54033
:1059D0000668354305601579012D02D01579022D31
:1059E00016D185684F000326BE40B54385605579C2
:1059F0004E00B540866835438560456801268E4077
:105A0000B5434560456896798E40B6B235434560EA
:105A1000C5684F000326BE40B543C560D5794E002A
:105A2000B540C6683543C560491C1029BFD3F0BDD9
:105A30004FF6FF7101600021017141718171C171E7
:105A4000704708B54FF480320092009A0A430092E2
:105A5000009AC261C161009AC261C2690092C269C2
:105A6000009208BD0246002013690B400BB10120D3
:105A700000E0002070470146086980B27047024686
:105A8000002053690B400BB1012000E0002070475B
:105A90000146486980B2704701837047418370476F
:105AA0000AB1018300E04183704741617047426958
:105AB0004A4042617047F0B5002300244D07ED0EC7
:105AC00002FA05F3CE1000F1200555F826504E07D6
:105AD000F70E0F26BE40B543CF1000F1200646F862
